:0A0000000C9456000C9400000C94C0
:10000A0000000C9400000C9400000C9400000C9466
:10001A0000000C9400000C9400000C9400000C9456
:10002A0000000C9400000C9400000C9400000C9446
:10003A0000000C9400000C9400000C9400000C9436
:10004A00A0000C9400000C9400000C9400000C9486
:10005A0000000C9400000C9400000C9400000C9416
:10006A0000000C9400000C9400000C9400000C9406
:10007A0000000C9400000C9400000C9400000C94F6
:10008A0000001027E80364000A00010000100001C4
:10009A001000010055005F000000060004009E00E9
:1000AA000000F894EE27ECBBF1E0F5BFE5BFE09362
:1000BA006C00F8E1F1BDE1BD8DE0A2E0BB27ED9354
:1000CA008A95E9F780E090E1A0E0B1E0ED9301972D
:1000DA00E9F7E4EAF0E085919591009761F0A5913E
:1000EA00B59105901590BF01F00105900D92019709
:1000FA00E1F7FB01F0CF8BBFEFEFEDBFE0E1EEBF21
:10010A00C0E0D5E00C94AB006DD00CF47BD07FD06E
:10011A000CF083D087D01BBD0ABD09C063D00CF494
:10012A0071D075D00CF079D07DD019BD08BD198178
:10013A000881249608959CB01895D201E5DFD30171
:10014A00EDDFC098A8EEB3E0A1D00895EFEFE7BBCA
:10015A00EEEFE2B9EAEAEFBDEAE1EEBDE8EBFBE079
:10016A00FBBDEABDF9BDE8BDEFE7FBEBF7BDE6BDB8
:10017A00EEEFE2B9E0E0EBB9E8E9EAB9E6E0E093EC
:10018A009500E0E0E0939000E7E6E9B9D6DF7894DD
:10019A00ECE4E91521F4C098F20131974ED0E2E57A
:1001AA00E91521F4C098F201319647D0E5E5E91541
:1001BA0021F4C098F301319745D0E4E4E91521F41C
:1001CA00C098F30131963ED0E3E5E91549F4C09AA7
:1001DA00A4EFB1E05BD0C098A8ECB0E057D0992466
:1001EA00D7CFFFCFBA93AA931A930A93EA81FB81D6
:1001FA00EA55F040EA83FB83AA81BB81AB3AEFEF71
:10020A00BE070895E8EAFFEFEA83FB830895AA810F
:10021A00BB81A635E0E0BE070895E8E5F0E0EA8391
:10022A00FB830895AA81BB81A65ABF4FE4E1F0E09F
:10023A001AD0E452FA4F8F0108952F01D20164DFD8
:10024A00992408953F01D30169DF99240895F1950E
:10025A00E195F0400895FA9FF02DEB9FF00DEA9F8B
:10026A00E02DF10D089504D0F6DF0EF4F0DF0895C5
:10027A00E894F7FF02C0EBDF6894B7FF06C0B195B8
:10028A00A195B04000F8039400FA0895109639F049
:10029A00A89580EA9FE00197F1F71197C9F70895A9
:00000001FF
